H013020256098 HK3174168                                               MOLUWILSON    20170121115820130023002ORCNHK000000000037CTN   000000000273KG    000000000979M3    MOLUMOL (ASIA) LTD.                    APL CHONGQING       022E                   SPORTING GOODS                                                        000000000000000000000000000000000000                                  00001                                   HILLSBORO, OR            000000000000000000            2017012100000000000000000000000CHONG KONG      TACOMA, WA     TACOMA, WA             00               00                                                                                                                                000000000                          00 000   000                                                                                         000000000249KG          20              0000000000000000000000000000000                              0000                                                  0000000000000000000000                                                                                                                                                                                      F                      20170104                                                                                                                                                                                                                                                                                                                                                                                                                                                                                                                                                                                                                                                                                                                                                                                                                                                                                                                                                                                                
H313020256098 HK3174168                           TCLU2990955                                  00000000027320                                                 MOL556461K     000000000037                                                                                                                                            CTN                             000000000000000000     00000000979M3    KG    0000000                                                                                                                                                                                                                                                                                                                                                                                                                                                                                                                                                                                                                                                                                                                                                                                                                                                                                                                                                                                                                                                                                                                                                                                                                                                                                                                                                                                                                                                                                                                                                                                                                                                                                                                                                                                                                                                                
C0               LD161214              2016121413020256098 HK3174168                                                           USD 01000000                                       00000000000198462000000000000000000000000000000000000000000000000000000000000000000   000000000000000000000000000000                                                                                                                                                                                                                                                     000000000037CTN   00000000027320170104CN                                                                                                                                                                                                                                                                                                                                                                                                                                                                                                                                             00000000000000000000000  00000000000000000000000000  000000000000           00000000000          000000000000 00                                                                                                                                       00000000000000000000                                                                                                                                                                                                                                                                                        000000000249  00 00000000000000000000000000000000000000000000000000000000000000000000000000000000000000000000000                                00000000 2                                                                                                                                                                                                                                                                                                                                                                                                             
C1               LD161214              201612140001013020256098 HK3174168                                                         WTDPCH00251/1                                                                                                                               000000000000      00000000    00000000000000000      00000000185M3    000000000000      000000000000000                                                        950699    0000000251100000000018000   000000002820   000000000000                                      5301428515                         00000000               000000000000                        N                                                                                                                                                   0000000000000000000000000000000                                                                  00000000000                 000000000000000000000000000000000000000000000000000000000000000000000000                                0000000000000                                                                                                                                                                                                                                                        000000000            00000000000                                                                                                                                                                                                                                                                                                                                                                     0000000000000000000000000000000000000000000000000   000000000           000000000               00000000000000000000000000000000000000000000000000000000000000000000000000000                              00                                                          00000000000000                                                                                                                  000000000                        00000000000000000            2                                       000000000000                                            
C1               LD161214              201612140002013020256098 HK3174168                                                         WTDPCH00218/1                                                                                                                               000000000000      00000000    00000000000000000      00000000312M3    000000000000      000000000000000                                                        950699    0000000713700000000078000   000000009100   000000000000                                      5301428518                         00000000               000000000000                        N                                                                                                                                                   0000000000000000000000000000000                                                                  00000000000                 000000000000000000000000000000000000000000000000000000000000000000000000                                0000000000000                                                                                                                                                                                                                                                        000000000            00000000000                                                                                                                                                                                                                                                                                                                                                                     0000000000000000000000000000000000000000000000000   000000000           000000000               00000000000000000000000000000000000000000000000000000000000000000000000000000                              00                                                          00000000000000                                                                                                                  000000000                        00000000000000000            2                                       000000000000                                            
